:020000040800F2
:1000000000500020F1070008290700082F0700080A
:10001000350700083B070008410700080000000002
:10002000000000000000000000000000470700087A
:1000300053070008000000005F0700086B07000876
:10004000390800083908000839080008390800088C
:10005000390800083908000839080008390800087C
:10006000390800083908000839080008390800086C
:10007000390800083908000839080008390800085C
:10008000390800083908000839080008390800084C
:10009000390800083908000839080008390800083C
:1000A000390800083908000839080008390800082C
:1000B000390800083908000839080008390800081C
:1000C000390800083908000839080008390800080C
:1000D00039080008390800083908000839080008FC
:1000E0003908000839080008390800080000000035
:1000F0000000000000000000000000000000000000
:0C01000000000000000000005FF808F1A3
:10010C0010B5054C237833B9044B13B10448AFF345
:10011C0000800123237010BD70000020000000003F
:10012C003422000808B5034B1BB103490348AFF355
:10013C00008008BD0000000074000020342200087C
:10014C0080B584B000AF0346FB710023FB6021E057
:10015C00FA798021FB6841FA03F31A40FB68C3F17A
:10016C00070342FA03F3FB72FB7A1A464FF4004181
:10017C00124800F04BFE01224FF400610F4800F0D2
:10018C0045FE00224FF400610C4800F03FFEFB6876
:10019C000133FB60FB68072BDADD01224FF4805141
:1001AC00064800F033FE00224FF48051034800F063
:1001BC002DFE00BF1037BD4680BD00BF00080140BA
:1001CC0080B586B000AF0346FB71FB791B09FB744D
:1001DC00FB7903F00F03BB74FB7CDB005BB203F019
:1001EC0078035BB263F07E035BB2DBB23B73FB7CE8
:1001FC00DB005BB203F078035BB263F07F035BB2AE
:10020C00DBB27B73BB7CDB005BB203F078035BB2CD
:10021C0063F07E035BB2DBB2BB73BB7CDB005BB217
:10022C0003F078035BB263F07F035BB2DBB2FB736A
:10023C0000237B610AE007F10C027B6913441B78F5
:10024C001846FFF77DFF7B6901337B617B69032BCC
:10025C00F1DD00BF00BF1837BD4680BD80B586B04C
:10026C0000AF0346FB71FB791B09FB74FB7903F0B0
:10027C000F03BB74FB7CDB005BB203F078035BB257
:10028C0063F07A035BB2DBB23B73BB7CDB005BB22B
:10029C0003F078035BB263F07A035BB2DBB2BB733F
:1002AC00BB7CDB005BB203F078035BB263F07B03D7
:1002BC005BB2DBB2FB7300237B610AE007F10C023B
:1002CC007B6913441B781846FFF73AFF7B690133AF
:1002DC007B617B69032BF1DD00BF00BF1837BD4686
:1002EC0080BD80B500AF0120FFF76AFF022000F04F
:1002FC0001FB00BF80BD80B582B000AF7860396073
:10030C007B68002B03D07B68012B05D009E03B6890
:10031C0043F080033B6004E03B6843F0C0033B6068
:10032C0000BF3B68DBB21846FFF74AFF00BF083737
:10033C00BD4680BD80B500AF322000F0DBFA302026
:10034C00FFF73EFF052000F0D5FA3020FFF738FF0D
:10035C00012000F0CFFA3020FFF732FF0A2000F026
:10036C00C9FA2020FFF72CFF0A2000F0C3FA28203E
:10037C00FFF726FF012000F0BDFA0820FFF720FF51
:10038C00012000F0B7FA0120FFF71AFF012000F05E
:10039C00B1FA012000F0AEFA0620FFF711FF0120A0
:1003AC0000F0A8FA0C20FFF70BFF00BF80BD80B552
:1003BC0082B000AF786006E07B685A1C7A601B78CC
:1003CC001846FFF74BFF7B681B78002BF4D100BF5E
:1003DC0000BF0837BD4680BD80B586B000AF00F0C9
:1003EC0027FA00F041F800F0B3F800F083F800238E
:1003FC007B61FFF79FFF3B467A691A49184601F06B
:10040C0099FA00210020FFF776FF3B461846FFF7CC
:10041C00CEFF7B6901337B614FF4FA6000F06AFA1E
:10042C00FFF75FFF4FF4FA6000F064FA3B467A691D
:10043C000C49184601F07EFA00210120FFF75BFF02
:10044C003B461846FFF7B3FF7B6901337B614FF4E2
:10045C00FA6000F04FFAFFF744FF4FF4FA6000F037
:10046C0049FAC8E74C22000880B590B000AF07F1FC
:10047C00180328220021184601F054FA3B1D0022D3
:10048C001A605A609A60DA601A610123BB614FF4FA
:10049C008033FB6100233B620123BB6202237B633D
:1004AC004FF48033BB634FF4E013FB6307F1180385
:1004BC00184600F007FE0346002B01D000F0B8F8F8
:1004CC000F237B600223BB600023FB604FF480632F
:1004DC003B6100237B613B1D0221184601F074F83F
:1004EC000346002B01D000F0A3F800BF4037BD46F7
:1004FC0080BD000080B500AF124B134A1A60114B3F
:10050C00124A5A600F4B00229A600E4B0022DA609E
:10051C000C4B4FF480421A610A4B00225A61094B72
:10052C0000229A61074B0022DA61064B00221A6204
:10053C00044800F083FC0346002B01D000F078F84F
:10054C0000BF80BD8C00002000540040A08601003C
:10055C0080B588B000AF07F1100300221A605A6012
:10056C009A60DA602F4B9B692E4A43F0200393610B
:10057C002C4B9B6903F02003FB60FB68294B9B69A8
:10058C00284A43F004039361264B9B6903F0040350
:10059C00BB60BB68234B9B69224A43F00803936101
:1005AC00204B9B6903F008037B607B6800224FF4AF
:1005BC0018411D4800F02AFC012208211B4800F0BC
:1005CC0025FC4FF408433B6101237B610123BB6194
:1005DC000323FB6107F110031946134800F092FA4C
:1005EC004FF480533B6101237B610223BB610323E6
:1005FC00FB6107F1100319460B4800F083FA08233E
:10060C003B6101237B610123BB610323FB6107F188
:10061C0010031946054800F075FA00BF2037BD4697
:10062C0080BD00BF0010024000080140000C0140DA
:10063C0080B400AF72B600BFFEE7000080B485B096
:10064C0000AF154B9B69144A43F001039361124BA5
:10065C009B6903F00103BB60BB680F4BDB690E4A5F
:10066C0043F08053D3610C4BDB6903F080537B6008
:10067C007B680A4B5B68FB60FB6823F0E063FB6004
:10068C00FB6843F00073FB60044AFB68536000BFD7
:10069C001437BD4680BC704700100240000001407A
:1006AC0080B588B000AF786007F1100300221A60A3
:1006BC005A609A60DA607B681B68154A934223D1B2
:1006CC00144B9B69134A43F008039361114B9B69CC
:1006DC0003F00803FB60FB68C0233B6112237B61C2
:1006EC000323FB6107F1100319460B4800F00AFACB
:1006FC00084BDB69074A43F40013D361054BDB69F4
:10070C0003F40013BB60BB6800BF2037BD4680BD3F
:10071C000054004000100240000C014080B400AFB7
:10072C00FEE780B400AFFEE780B400AFFEE780B414
:10073C0000AFFEE780B400AFFEE780B400AF00BFAF
:10074C00BD4680BC704780B400AF00BFBD4680BCC6
:10075C00704780B400AF00BFBD4680BC704780B509
:10076C0000AF00F0ABF800BF80BD000080B586B0D4
:10077C0000AF7860144A154BD31A7B617B693B61DF
:10078C00134B1B68002B02D1114B124A1A60104BF1
:10079C001A687B6813443A699A4207D201F098F8B8
:1007AC0003460C221A604FF0FF3309E0084B1B681C
:1007BC00FB60074B1A687B681344054A1360FB689F
:1007CC0018461837BD4680BD0050002000040000BC
:1007DC00E0000020F800002080B400AF00BFBD4650
:1007EC0080BC70470C480D490D4A002302E0D458D8
:1007FC00C4500433C4188C42F9D30A4A0A4C00235F
:10080C0001E013600432A242FBD3FFF7E5FF01F0D5
:10081C0065F8FFF7E1FD7047000000207000002034
:10082C00C022000870000020F8000020FEE7000045
:10083C0080B500AF084B1B68074A43F010031360E8
:10084C00032000F02BF90F2000F008F8FFF7F6FE5C
:10085C000023184680BD00BF0020024080B582B046
:10086C0000AF7860124B1A68124B1B7819464FF484
:10087C007A73B3FBF1F3B2FBF3F3184600F035F9DE
:10088C000346002B01D001230EE07B680F2B0AD806
:10089C00002279684FF0FF3000F00BF9064A7B68B4
:1008AC001360002300E0012318460837BD4680BDC5
:1008BC0000000020080000200400002080B400AFDD
:1008CC00054B1B781A46054B1B681344034A1360EF
:1008DC0000BFBD4680BC704708000020E40000202B
:1008EC0080B400AF024B1B681846BD4680BC7047F5
:1008FC00E400002080B584B000AF7860FFF7F0FF13
:10090C00B8607B68FB60FB68B3F1FF3F05D00A4B16
:10091C001B781A46FB681344FB6000BFFFF7E0FF2F
:10092C000246BB68D31AFA689A42F7D800BF00BFD8
:10093C001037BD4680BD00BF0800002080B485B0D4
:10094C0000AF78607B6803F00703FB600C4BDB683F
:10095C00BB60BA684FF6FF031340BB60FB681A021A
:10096C00BB68134343F0BF6343F40033BB60044ADA
:10097C00BB68D36000BF1437BD4680BC704700BF56
:10098C0000ED00E080B400AF044BDB681B0A03F001
:10099C0007031846BD4680BC704700BF00ED00E061
:1009AC0080B483B000AF03463960FB7197F9073010
:1009BC00002B0ADB3B68DAB20C4997F907301201BD
:1009CC00D2B20B4483F800230AE03B68DAB2084940
:1009DC00FB7903F00F03043B1201D2B20B441A76DD
:1009EC0000BF0C37BD4680BC704700BF00E100E083
:1009FC0000ED00E080B489B000AFF860B9607A60B7
:100A0C00FB6803F00703FB61FB69C3F10703042BCD
:100A1C0028BF0423BB61FB690433062B02D9FB6995
:100A2C00033B00E000237B614FF0FF32BB6902FA0D
:100A3C0003F3DA43BB681A407B699A404FF0FF31ED
:100A4C007B6901FA03F3D9437B680B4013431846C7
:100A5C002437BD4680BC704780B582B000AF78604B
:100A6C007B68013BB3F1807F01D301230FE00A4A7D
:100A7C007B68013B53600F214FF0FF30FFF790FF75
:100A8C00054B00229A60044B07221A60002318467B
:100A9C000837BD4680BD00BF10E000E080B582B0D5
:100AAC0000AF78607868FFF749FF00BF0837BD4694
:100ABC0080BD80B586B000AF0346B9607A60FB7329
:100ACC0000237B61FFF75EFF78617A68B96878690B
:100ADC00FFF790FF024697F90F3011461846FFF7C3
:100AEC005FFF00BF1837BD4680BD80B582B000AF38
:100AFC0078607868FFF7B0FF034618460837BD46A4
:100B0C0080BD000080B48BB000AF786039600023EA
:100B1C007B6200233B6269E101227B6A02FA03F3E8
:100B2C00FB613B681B68FA691340BB61BA69FB69DE
:100B3C009A4240F058813B685B689A4A93425ED077
:100B4C00984A934275D8984A934258D0964A934201
:100B5C006FD8964A934252D0944A934269D8944A99
:100B6C0093424CD0924A934263D8924A934246D0D5
:100B7C00904A93425DD8122B2AD8122B59D801A235
:100B8C0052F823F00B0C0008E50B0008F70B0008DB
:100B9C00390C00083F0C00083F0C00083F0C000803
:100BAC003F0C00083F0C00083F0C00083F0C0008ED
:100BBC003F0C00083F0C00083F0C00083F0C0008DD
:100BCC003F0C00083F0C0008ED0B0008010C00085E
:100BDC00794A934213D02CE03B68DB683B6229E0F6
:100BEC003B68DB6804333B6224E03B68DB6808331A
:100BFC003B621FE03B68DB680C333B621AE03B68EE
:100C0C009B68002B02D104233B6213E03B689B687A
:100C1C00012B05D108233B627B68FA691A6109E054
:100C2C0008233B627B68FA695A6103E000233B624C
:100C3C0000E000BFBB69FF2B01D87B6801E07B683B
:100C4C0004337B61BB69FF2B02D87B6A9B0002E0FB
:100C5C007B6A083B9B003B617B691A680F213B69EF
:100C6C0001FA03F3DB431A40396A3B6901FA03F3D7
:100C7C001A437B691A603B685B6803F08053002B56
:100C8C0000F0B1804D4B9B694C4A43F001039361DA
:100C9C004A4B9B6903F00103BB60BB68484A7B6A03
:100CAC009B08023352F82330FB607B6A03F003038A
:100CBC009B000F2202FA03F3DB43FA681340FB603C
:100CCC007B68404A934213D07B683F4A93420DD0D5
:100CDC007B683E4A934207D07B683D4A934201D1E0
:100CEC00032306E0042304E0022302E0012300E0D6
:100CFC0000237A6A02F0030292009340FA681343CD
:100D0C00FB602F497B6A9B080233FA6841F8232069
:100D1C003B685B6803F48033002B06D02D4B1A68BC
:100D2C002C49BB6913430B6006E02A4B1A68BB695C
:100D3C00DB43284913400B603B685B6803F40033CA
:100D4C00002B06D0234B5A682249BB6913434B60D6
:100D5C0006E0204B5A68BB69DB431E4913404B60CD
:100D6C003B685B6803F48013002B06D0194B9A6820
:100D7C001849BB6913438B6006E0164B9A68BB6934
:100D8C00DB43144913408B603B685B6803F400132E
:100D9C00002B21D00F4BDA680E49BB691343CB6093
:100DAC0021E000BF000032100000311000002210C2
:100DBC000000211000001210000011100010024061
:100DCC000000014000080140000C014000100140EF
:100DDC0000140140000401400B4BDA68BB69DB4393
:100DEC0009491340CB607B6A01337B623B681A680C
:100DFC007B6A22FA03F3002B7FF48EAE00BF00BF98
:100E0C002C37BD4680BC70470004014080B483B0D1
:100E1C0000AF78600B467B8013467B707B78002B91
:100E2C0003D07A887B681A6103E07B881A047B689C
:100E3C001A6100BF0C37BD4680BC704780B584B0CA
:100E4C0000AF78607B68002B01D101232BE17B681C
:100E5C0093F83D30DBB2002B06D17B68002283F87F
:100E6C003C207868FFF71CFC7B68242283F83D202B
:100E7C007B681B681A687B681B6822F001021A6089
:100E8C007B681B681A687B681B6842F400421A6016
:100E9C007B681B681A687B681B6822F400421A6026
:100EAC0000F0E4FCF8607B685B68814A934207D8E9
:100EBC00FB68804A934294BF01230023DBB206E017
:100ECC00FB687D4A934294BF01230023DBB2002BC5
:100EDC0001D00123E7E0FB68784AA2FB03239B0CBB
:100EEC00BB607B681B685B6823F03F017B681B68F9
:100EFC00BA680A435A607B681B681B6A23F03F017F
:100F0C007B685B686A4A934202D8BB68013309E08C
:100F1C00BB684FF4967202FB03F3694AA2FB0323EE
:100F2C009B0901337A6812680B4313627B681B6858
:100F3C00DB6923F44F4222F0FF027B685B685C495B
:100F4C008B4219D8FB68591E7B685B685B00B1FB50
:100F5C00F3F3591C40F6FC730B40002B0AD0FB68D2
:100F6C00591E7B685B685B00B1FBF3F30133C3F381
:100F7C000B0351E004234FE07B689B68002B11D1DD
:100F8C00FB68581E7B6859680B465B000B44B0FB32
:100F9C00F3F30133C3F30B03002B0CBF012300232A
:100FAC00DBB212E0FB68581E7B6859680B469B004D
:100FBC000B4499000B44B0FBF3F30133C3F30B0365
:100FCC00002B0CBF01230023DBB2002B01D001232B
:100FDC0022E07B689B68002B0ED1FB68581E7B6857
:100FEC0059680B465B000B44B0FBF3F30133C3F3BE
:100FFC000B0343F400430FE0FB68581E7B685968F1
:10100C000B469B000B4499000B44B0FBF3F30133EC
:10101C00C3F30B0343F44043796809681343CB6172
:10102C007B681B681B6823F0C0017B68DA697B68EE
:10103C001B6A1A437B681B680A431A607B681B682F
:10104C009B6823F4034323F0FF037A6811697A68E1
:10105C00D26811437A6812680B4393607B681B68F3
:10106C00DB6823F0FF017B685A697B689B691A4334
:10107C007B681B680A43DA607B681B681A687B68AC
:10108C001B6842F001021A607B6800221A647B68BC
:10109C00202283F83D207B6800221A637B680022A3
:1010AC0083F83E20002318461037BD4680BD00BF94
:1010BC00A08601007F841E00FF083D0083DE1B43D9
:1010CC00D34D621080B586B000AF78607B68002B82
:1010DC0001D1012372E27B681B6803F00103002B32
:1010EC0000F08780924B5B6803F00C03042B0CD050
:1010FC008F4B5B6803F00C03082B12D18C4B5B6895
:10110C0003F48033B3F5803F0BD1894B1B6803F498
:10111C000033002B6CD07B685B68002B68D10123FB
:10112C004CE27B685B68B3F5803F06D1804B1B6853
:10113C007F4A43F4803313602EE07B685B68002B9E
:10114C000CD17B4B1B687A4A23F480331360784BA9
:10115C001B68774A23F4802313601DE07B685B686F
:10116C00B3F5A02F0CD1724B1B68714A43F480234A
:10117C0013606F4B1B686E4A43F4803313600BE0B3
:10118C006B4B1B686A4A23F480331360684B1B68F3
:10119C00674A23F4802313607B685B68002B13D0B1
:1011AC00FFF79EFB386108E0FFF79AFB02463B69AC
:1011BC00D31A642B01D9032300E25D4B1B6803F4A3
:1011CC000033002BF0D014E0FFF78AFB386108E005
:1011DC00FFF786FB02463B69D31A642B01D9032324
:1011EC00ECE1534B1B6803F40033002BF0D100E00F
:1011FC0000BF7B681B6803F00203002B63D04C4BD1
:10120C005B6803F00C03002B0BD0494B5B6803F0BD
:10121C000C03082B1CD1464B5B6803F48033002B6A
:10122C0016D1434B1B6803F00203002B05D07B68DF
:10123C001B69012B01D00123C0E13D4B1B6823F03E
:10124C00F8027B685B69DB00394913430B603AE0B9
:10125C007B681B69002B20D0364B01221A60FFF7EC
:10126C003FFB386108E0FFF73BFB02463B69D31AB2
:10127C00022B01D90323A1E12D4B1B6803F00203C0
:10128C00002BF0D02A4B1B6823F0F8027B685B69BB
:10129C00DB00274913430B6015E0264B00221A6034
:1012AC00FFF71EFB386108E0FFF71AFB02463B69AB
:1012BC00D31A022B01D9032380E11D4B1B6803F0C9
:1012CC000203002BF0D17B681B6803F00803002B92
:1012DC003AD07B689B69002B19D0174B01221A60FE
:1012EC00FFF7FEFA386108E0FFF7FAFA02463B69AD
:1012FC00D31A022B01D9032360E10D4B5B6A03F077
:10130C000203002BF0D0012000F0C4FA1CE00A4BC1
:10131C0000221A60FFF7E4FA38610FE0FFF7E0FAF9
:10132C0002463B69D31A022B08D9032346E100BFBE
:10133C00001002400000424280044242924B5B6A21
:10134C0003F00203002BE9D17B681B6803F0040354
:10135C00002B00F0A6800023FB758B4BDB6903F0A0
:10136C008053002B0DD1884BDB69874A43F08053A7
:10137C00D361854BDB6903F08053BB60BB680123F1
:10138C00FB75824B1B6803F48073002B18D17F4BC9
:10139C001B687E4A43F480731360FFF7A1FA38612F
:1013AC0008E0FFF79DFA02463B69D31A642B01D97A
:1013BC00032303E1754B1B6803F48073002BF0D0FF
:1013CC007B68DB68012B06D16F4B1B6A6E4A43F0BE
:1013DC00010313622DE07B68DB68002B0CD16A4B98
:1013EC001B6A694A23F001031362674B1B6A664A46
:1013FC0023F0040313621CE07B68DB68052B0CD123
:10140C00614B1B6A604A43F0040313625E4B1B6A18
:10141C005D4A43F0010313620BE05B4B1B6A5A4AB3
:10142C0023F001031362584B1B6A574A23F0040341
:10143C0013627B68DB68002B15D0FFF751FA38611B
:10144C000AE0FFF74DFA02463B69D31A41F28832A3
:10145C00934201D90323B1E04B4B1B6A03F0020307
:10146C00002BEED014E0FFF73BFA38610AE0FFF7EF
:10147C0037FA02463B69D31A41F28832934201D9BA
:10148C0003239BE0404B1B6A03F00203002BEED1BD
:10149C00FB7D012B05D13C4BDB693B4A23F0805390
:1014AC00D3617B68DB69002B00F08780364B5B686F
:1014BC0003F00C03082B61D07B68DB69022B46D14F
:1014CC00334B00221A60FFF70BFA386108E0FFF784
:1014DC0007FA02463B69D31A022B01D903236DE0AC
:1014EC00294B1B6803F00073002BF0D17B681B6A3F
:1014FC00B3F5803F08D1244B5B6823F400327B6842
:10150C009B68214913434B601F4B5B6823F4741297
:10151C007B68196A7B685B6A0B431B4913434B60FE
:10152C001B4B01221A60FFF7DBF9386108E0FFF76B
:10153C00D7F902463B69D31A022B01D903233DE0AC
:10154C00114B1B6803F00073002BF0D035E0104BEF
:10155C0000221A60FFF7C4F9386108E0FFF7C0F900
:10156C0002463B69D31A022B01D9032326E0064B12
:10157C001B6803F00073002BF0D11EE07B68DB6965
:10158C00012B07D1012319E000100240007000402C
:10159C00600042420B4B5B68FB60FB6803F48032DB
:1015AC007B681B6A9A4206D1FB6803F470127B6855
:1015BC005B6A9A4201D0012300E0002318461837D9
:1015CC00BD4680BD0010024080B584B000AF78608D
:1015DC0039607B68002B01D10123D0E06A4B1B687A
:1015EC0003F007033A689A4210D9674B1B6823F043
:1015FC00070265493B6813430B60634B1B6803F0A0
:10160C0007033A689A4201D00123B8E07B681B6853
:10161C0003F00203002B20D07B681B6803F004034B
:10162C00002B05D0594B5B68584A43F4E063536078
:10163C007B681B6803F00803002B05D0534B5B68D9
:10164C00524A43F460535360504B5B6823F0F002F2
:10165C007B689B684D4913434B607B681B6803F0A8
:10166C000103002B40D07B685B68012B07D1474BF3
:10167C001B6803F40033002B15D101237FE07B683A
:10168C005B68022B07D1414B1B6803F00073002BE6
:10169C0009D1012373E03D4B1B6803F00203002BBF
:1016AC0001D101236BE0394B5B6823F003027B68AB
:1016BC005B68364913434B60FFF712F9F8600AE098
:1016CC00FFF70EF90246FB68D31A41F288329342B7
:1016DC0001D9032353E02D4B5B6803F00C027B68AC
:1016EC005B689B009A42EBD1274B1B6803F0070306
:1016FC003A689A4210D2244B1B6823F00702224905
:10170C003B6813430B60204B1B6803F007033A68DC
:10171C009A4201D0012332E07B681B6803F004037A
:10172C00002B08D0194B5B6823F4E0627B68DB6804
:10173C00164913434B607B681B6803F00803002BAE
:10174C0009D0124B5B6823F460527B681B69DB0089
:10175C000E4913434B6000F021F802460B4B5B68BB
:10176C001B0903F00F030A49CB5C22FA03F3094A65
:10177C001360094B1B681846FFF770F800231846D6
:10178C001037BD4680BD00BF002002400010024053
:10179C006C220008000000200400002090B48AB0E5
:1017AC0000AF294B3C1D0FCB84E80F0040F2012306
:1017BC003B800023FB610023BB6100237B62002381
:1017CC007B6100233B62214B5B68FB61FB6903F08F
:1017DC000C03042B02D0082B03D02BE01C4B3B62D8
:1017EC002BE0FB699B0C03F00F0328333B4413F8ED
:1017FC00243C7B61FB6903F48033002B12D0134B28
:10180C005B685B0C03F0010328333B4413F8283C62
:10181C00BB617B690E4A03FB02F2BB69B2FBF3F3BB
:10182C007B6204E07B690B4A02FB03F37B627B6AFD
:10183C003B6202E0064B3B6200BF3B6A184628370E
:10184C00BD4690BC704700BF5C22000800100240EF
:10185C0000127A0000093D0080B400AF024B1B68F7
:10186C001846BD4680BC70470000002080B500AF14
:10187C00FFF7F2FF0246054B5B681B0A03F00703F8
:10188C000349CB5C22FA03F3184680BD00100240DA
:10189C007C22000880B485B000AF78600A4B1B68CE
:1018AC000A4AA2FB03235B0A7A6802FB03F3FB6080
:1018BC0000BFFB685A1EFA60002BF9D100BF00BFB5
:1018CC001437BD4680BC704700000020D34D621019
:1018DC00014B1868704700BF0C00002070B5002643
:1018EC000C4D0D4C641BA410A64209D100F09CFCBD
:1018FC0000260A4D0A4C641BA410A64205D170BDEB
:10190C0055F8043B98470136EEE755F8043B9847E9
:10191C000136F2E7B8220008B8220008B822000805
:10192C00BC22000803460244934200D1704703F8DE
:10193C00011BF9E70EB46FF0004100B59CB01DAB74
:10194C0002900690079104910848094953F8042B1A
:10195C000591006802A9019300F068F80022029B2F
:10196C001A701CB05DF804EB03B070470C0000203B
:10197C000802FFFF2DE9F0478E6882469E420C4616
:10198C0090461F4638D88A8912F4906F32D0256859
:10199C0009690133A5EB010965694B4405EB450564
:1019AC0005EBD5756D109D4238BF1D46530531D5DD
:1019BC00294600F06FFB064650B90C234FF0FF3060
:1019CC00CAF80030A38943F04003A381BDE8F08737
:1019DC004A46216900F0CEFAA38923F4906343F0C0
:1019EC008003A38126614E4426603E466561A5EBCB
:1019FC000905A560BE4200D93E46324641462068E4
:101A0C0000F0C6FAA36800209B1BA3602368334434
:101A1C002360DBE72A4600F0B1FB06460028E1D143
:101A2C005046216900F0CEFAC7E700002DE9F04FCF
:101A3C0098468B8907461B060D4614469DB00ED55D
:101A4C000B6963B9402100F025FB2860286120B99F
:101A5C000C233B604FF0FF30D1E040236B6100233F
:101A6C00099320238DF8293030234FF00109CDF84C
:101A7C000C80DFF8A4818DF82A3023469A4613F89F
:101A8C00012B0AB1252AF9D1BAEB040B0BD05B461A
:101A9C00224629463846FFF76DFF013000F0AA8038
:101AAC00099A5A4409929AF80030002B00F0A2804F
:101ABC0000234FF0FF32CDE905230AF1010A04930C
:101ACC0007938DF853301A935446052214F8011BD2
:101ADC00514800F041FA049AD8B9D00644BF2023EB
:101AEC008DF85330110744BF2B238DF853309AF8DF
:101AFC0000302A2B15D0544600204FF00A0C079AC0
:101B0C00214611F8013B303B092B4ED9B0B107925D
:101B1C0014E0A0EB080309FA03F31343A246049361
:101B2C00D2E7039B191D1B680391002BBBBF5B42C3
:101B3C0042F0020207930793B8BF049223782E2B2E
:101B4C000CD163782A2B35D1039B02341A1D1B68E8
:101B5C000392002BB8BF4FF0FF330593DFF8BCA006
:101B6C0003225046217800F0F7F940B14023A0EB56
:101B7C000A0003FA00F0049B01340343049314F8A5
:101B8C00011B062226488DF8281000F0E5F90028E4
:101B9C0038D0244B1BBB039B073323F007030833BC
:101BAC000393099B3344099367E70C4601200CFB14
:101BBC000232A5E700234FF00A0C194601340593B5
:101BCC00204610F8012B303A092A03D9002BC5D036
:101BDC000591C3E7044601230CFB0121F0E703AB9D
:101BEC0000932A463846104B04A9AFF30080421CE0
:101BFC000646D6D1AB895B063FF52CAF09981DB0D4
:101C0C00BDE8F08F03AB00932A463846064B04A977
:101C1C0000F07CF8EBE700BF842200088A22000861
:101C2C008E22000800000000811900082DE9F04701
:101C3C00164699468A680B6907469342B8BF134605
:101C4C00336091F843200C46DDF820800AB1013353
:101C5C0033602368990642BF3368023333602568CA
:101C6C0015F0060506D104F1190AE36832689B1ACF
:101C7C00AB4228DC94F84320131E226818BF0123C2
:101C8C0092062DD44946384604F14302C047013030
:101C9C0020D02368E56803F00603042B18BF002549
:101CAC0032684FF00006A36808BFAD1A226908BF5E
:101CBC0025EAE5759342C4BF9B1AED181A34B54258
:101CCC001AD1002008E00123524649463846C04745
:101CDC00013003D14FF0FF30BDE8F0870135C4E788
:101CEC003020E11881F843005A1C94F84510224426
:101CFC00023382F84310C5E7012322464946384691
:101D0C00C0470130E6D00136D9E700002DE9FF4786
:101D1C000F7E9146782F80460C469A460C9D01F119
:101D2C00430207D8622F0AD8002F00F0D980582F11
:101D3C0000F0A48004F1420584F842703AE0A7F167
:101D4C006303152BF6D801A151F823F0B11D00083F
:101D5C00C51D0008411D0008411D0008411D00085B
:101D6C00411D0008C51D0008411D0008411D00084B
:101D7C00411D0008411D0008D31E0008F51D000878
:101D8C00B51E0008411D0008411D0008F51E000885
:101D9C00411D0008F51D0008411D0008411D0008EB
:101DAC00BD1E00082B681A1D1B682A6004F1420531
:101DBC0084F842300123A4E020682968060601F16A
:101DCC0004030AD50E682B60002E03DA2D2376420D
:101DDC0084F843300A235E4819E00E6810F0400F77
:101DEC002B6018BF36B2EFE72B682068191D2960ED
:101DFC00010601D51E6802E04606FBD51E886F2F32
:101E0C000CBF08230A235248002184F8431065684C
:101E1C00002DA8BF2168A560A4BF21F0040121609A
:101E2C000EB9002D4DD01546B6FBF3F103FB11672F
:101E3C00C75D05F8017D3746BB420E46F4D9082B29
:101E4C000BD12368DE0708D5236961689942DEBF90
:101E5C00302305F8013C05F1FF35521B22614B463E
:101E6C0021464046CDF800A003AAFFF7DFFE013063
:101E7C004CD14FF0FF3004B0BDE8F087344881F806
:101E8C0045702968236851F8046B29601D0614D528
:101E9C00DF0744BF43F0200323601EB9236823F0FF
:101EAC00200323601023AFE7236843F02003236053
:101EBC007823284884F84530E3E7590648BFB6B282
:101ECC00E6E71546BBE72B682668181D6169286094
:101EDC0035061B6801D5196002E07006FBD5198028
:101EEC00002315462361BAE72B6800211A1D2A60CE
:101EFC001D686268284600F02FF808B1401B60602E
:101F0C0063682361002384F84330A8E72A464946D6
:101F1C0040462369D0470130ABD023689B0713D4CC
:101F2C00E068039B9842B8BF1846A4E701233246E9
:101F3C0049464046D04701309BD00135E3680399B0
:101F4C005B1AAB42F2DCEBE7002504F11906F5E76E
:101F5C0095220008A6220008034610B5C9B2024417
:101F6C009342184601D1002003E0047801338C42DF
:101F7C00F6D110BD0A44914200F1FF3300D17047F5
:101F8C0010B511F8014B914203F8014FF9D110BD76
:101F9C00884210B501EB020402D98442234607D8CB
:101FAC00431EA14208D011F8012B03F8012FF8E7CA
:101FBC00014602448A4200D110BD13F8014D02F8CB
:101FCC00014DF7E738B50546002940D051F8043CDF
:101FDC000C1F002BB8BFE41800F010F91C4A136852
:101FEC0033B9636014602846BDE8384000F00CB982
:101FFC00A34208D9206821188B4201BF19685B687D
:10200C0009182160EDE71A465B680BB1A342FAD9B7
:10201C0011685018A0420BD120680144501883421B
:10202C001160E0D118685B68014411605360DAE715
:10203C0002D90C232B60D6E7206821188B4201BFF4
:10204C0019685B680918216063605460CBE738BD80
:10205C00E800002070B50E4E0C463168054611B9EB
:10206C0000F0BCF830602146284600F0B7F8431C5D
:10207C000AD0C41C24F00304A04207D0211A28461D
:10208C0000F0ACF8013001D14FF0FF34204670BDA8
:10209C00EC0000202DE9F041CD1C25F0030508359E
:1020AC000C2D38BF0C25002D074601DBA94205D9A4
:1020BC000C2300263B603046BDE8F0812E4E00F02C
:1020CC009DF833681C4634BB29463846FFF7C2FFDF
:1020DC00431C04464DD134682646002E40D123685B
:1020EC003146384604EB030800F078F880453AD1C5
:1020FC00216803356D1A25F0030508350C2D38BF02
:10210C000C2538462946FFF7A5FF01302BD0236854
:10211C002B4423600EE02268521B1ED40B2A16D9C6
:10212C006119A342256018BF5960636808BF31600C
:10213C0062514B60384604F10B0600F065F826F04E
:10214C000706231DF21AB6D09B1BA350B3E7626897
:10215C00A3420CBF32605A60ECE723466468B2E7D6
:10216C0034467668B9E70C2338463B6000F04CF8EF
:10217C00A1E72560DEE700BFE80000202DE9F04173
:10218C00804614460E4621B91146BDE8F041FFF7D2
:10219C0081BF2AB9FFF716FF25462846BDE8F08116
:1021AC0000F038F88442074602D8B4EB500F12D82E
:1021BC0021464046FFF76EFF05460028EDD0BC4295
:1021CC002246314628BF3A46FFF7D4FE31464046F8
:1021DC00FFF7F8FEE1E73546DFE7000038B50023EE
:1021EC00054D044608462B60FEF7C0FA431C02D18D
:1021FC002B6803B1236038BDF0000020014800F0CB
:10220C0011B800BFF4000020014800F00CB800BF6A
:10221C00F400002051F8043C181F002BBCBF0B58D5
:10222C00C018704770477047F8B500BFF8BC08BCC1
:10223C009E467047F8B500BFF8BC08BC9E46704778
:10224C0044434D20542E5468616F2078256400005F
:10225C0002030405060708090A0B0C0D0E0F1010DB
:10226C00000000000000000001020304060708093A
:10227C000000000001020304232D302B2000686CA9
:10228C004C0065666745464700303132333435368D
:10229C0037383941424344454600303132333435C6
:0C22AC00363738396162636465660000F3
:0422B80031010008E8
:0422BC000D01000808
:1022C0000024F400100000000100000010000020B5
:1022D00000000000000000000000000000000000FE
:1022E00000000000000000000000000000000000EE
:1022F00000000000000000000000000000000000DE
:1023000000000000000000000000000000000000CD
:1023100000000000000000000000000000000000BD
:1023200000000000000000000000000000000000AD
:04000005080007F1F7
:00000001FF
